:020000040800F2
:10000000A8070020F9030008FD010008FF0100080F
:1000100003020008070200080B02000800000000AD
:100020000000000000000000000000000F020008B7
:100030001102000800000000130200081502000869
:100040001304000813040008130400081304000834
:100050001304000813040008130400081304000824
:100060001304000813040008130400081304000814
:100070001304000813040008130400081304000804
:1000800013040008130400081304000813040008F4
:1000900013040008130400081304000813040008E4
:1000A00013040008130400081304000813040008D4
:1000B00013040008130400081304000813040008C4
:1000C00013040008130400081304000813040008B4
:1000D00013040008C51400081304000813040008E2
:1000E0001304000813040008130400081304000894
:1000F0001304000813040008130400081304000884
:100100001304000813040008130400081304000873
:100110001304000813040008130400081304000863
:100120001304000813040008130400081304000853
:1001300000F002F800F03CF80AA090E8000C8244BD
:100140008344AAF10107DA4501D100F031F8AFF29A
:10015000090EBAE80F0013F0010F18BFFB1A43F0A5
:1001600001031847A4210000C4210000103A24BF55
:1001700078C878C1FAD8520724BF30C830C144BF0C
:1001800004680C607047000000230024002500264E
:10019000103A28BF78C1FBD8520728BF30C148BFEA
:1001A0000B607047002070471FB51FBD10B510BD14
:1001B00002F07AF81146FFF7F7FF00F009F802F0B5
:1001C00098F803B4FFF7F2FF03BC01F01DF900003B
:1001D00001F0AAF801F012F901F0BAF94FF4E13098
:1001E00001F021F901F012FF01200349086001E04C
:1001F00001F098FCFCE70000A0812142704700BF9D
:10020000FEE700BFFEE700BFFEE700BFFEE7704766
:1002100070477047704700000CB5002001900090B7
:100220006C48006840F480306A49086000BF694843
:10023000006800F4003000900198401C0190009884
:1002400018B90198B0F5A06FF1D16248006800F4C8
:10025000003010B10120009001E0002000900098D3
:10026000012843D15C48006840F010005A490860FA
:100270000846006820F0030008600846006840F067
:100280000200086053484068524948600846406888
:1002900048600846406840F480604860084640680E
:1002A00020F47C1048600846406840F4E81048603C
:1002B0000846006840F08070086000BF454800684C
:1002C00000F000700028F9D04248406820F0030098
:1002D000404948600846406840F00200486000BF5E
:1002E0003C48406800F00C000828F9D10CBD10B55E
:1002F000FFF792FF10BD10B53648006840F00100CE
:10030000344908600846406834490840314948602B
:1003100008460068324908402E49086008460068CF
:1003200020F4802008600846406820F4FE00486001
:100330004FF41F008860FFF7DAFF4FF00060294993
:10034000086010BD10B5002100200022214B5B6821
:1003500003F00C0121B1042906D0082928D107E0B7
:10036000214B224C236027E01F4B204C236023E0CD
:10037000184B5B6803F47010164B5B6803F4803213
:10038000022303EB904022B9194B4343174C2360DF
:100390000DE0104B5B6803F4003323B1144B43436F
:1003A000124C236003E0104B4343104C236003E0E6
:1003B0000D4B0E4C236000BF00BF064B5B68C3F3C0
:1003C00003130C4CE15C094B1B68CB40074C2360CA
:1003D00010BD000000100240002002400000FFF8A5
:1003E000FFFFF6FE08ED00E000127A00000000209A
:1003F00000093D00040000200948804709480047E3
:10040000FEE7FEE7FEE7FEE7FEE7FEE7FEE7FEE7C4
:10041000FEE7FEE704480549054A064B7047000021
:10042000F702000831010008A8010020A8070020F9
:10043000A8030020A803002031490143314A11607C
:10044000704770B5002100230F22C47804B32D4CEF
:10045000246804F4E064C4F5E064210AC1F10403F3
:10046000CA40447804FA03F1847814402143090116
:10047000254C0678A155047804F01F050124AC40F2
:1004800005786D11AD0005F1E025C5F8004109E0E2
:10049000047804F01F050124AC401C4D0678761149
:1004A00045F8264070BD1A4A0A400243154B1B1FEF
:1004B0001A60704739B1134A121D12680243114B7A
:1004C0001B1D1A6006E00F4A121D126882430D4B75
:1004D0001B1D1A607047042808D14FF0E0210969FC
:1004E00041F004014FF0E022116107E04FF0E021FC
:1004F000096921F004014FF0E0221161704700000A
:100500000000FA050CED00E000E400E080E100E00E
:1005100080FFFF1F10B50446CC48844208D101215A
:10052000042000F02DFB0021042000F029FB46E010
:10053000C748844208D10121082000F021FB002196
:10054000082000F01DFB3AE0C248844208D1012196
:10055000102000F015FB0021102000F011FB2EE010
:10056000BD48844208D10121202000F009FB002170
:10057000202000F005FB22E0B848844208D1012188
:10058000402000F0FDFA0021402000F0F9FA16E0CA
:10059000B348844208D10121802000F0F1FA002103
:1005A000802000F0EDFA0AE0AE48844207D1012134
:1005B000801500F0E5FA0021A01500F0E1FA10BD69
:1005C00010B50121084600F0DBFA0021012000F0FF
:1005D000D7FA10BD2DE9F041024600250026002083
:1005E00000230024002791F803C00CF00F0591F8B8
:1005F00003C00CF0100CBCF1000F03D091F802C046
:100600004CEA050591F800C0BCF1000F31D0146828
:1006100000202BE04FF0010C0CFA00F3B1F800C001
:100620000CEA03069E4220D183004FF00F0C0CFA17
:1006300003F7BC4305FA03FC4CEA040491F803C039
:10064000BCF1280F06D14FF0010C0CFA00FCC2F8E7
:1006500014C00AE091F803C0BCF1480F05D14FF077
:10066000010C0CFA00FCC2F810C0401C0828D1D3C1
:100670001460B1F800C0BCF1FF0F34DD54680020F5
:100680002EE000F1080C4FF0010808FA0CF3B1F865
:1006900000C00CEA03069E4221D183004FF00F0CEC
:1006A0000CFA03F7BC4305FA03FC4CEA040491F886
:1006B00003C0BCF1280F05D100F1080C08FA0CF8B2
:1006C000C2F8148091F803C0BCF1480F07D100F1C3
:1006D000080C4FF0010808FA0CF8C2F81080401C12
:1006E0000828CED35460BDE8F0814FF6FF71018039
:1006F000022181700421C170704702460020936876
:100700000B400BB1012000E00020704701468868D3
:1007100080B2704702460020D3680B400BB1012025
:1007200000E0002070470146C86880B27047016150
:100730007047416170470AB1016100E04161704753
:10074000C16070474FF480320A43826181618261E7
:1007500082698269704702460020434B18684FF651
:100760008073184040EA021008433F4B18607047FE
:100770003E49C8617047F0B50A46002300240021B5
:10078000002500F00046B6F1004F02D1364EF16967
:1007900001E0354E7168C0F3034583B200F44016A2
:1007A000B6F5401F08D121F070612F4E766826F013
:1007B00070662D4F7E6012E000F48016B6F5801F43
:1007C00006D1032606FA05F4A14341F0706106E064
:1007D000460D360103FA06F6B14341F0706122B1CD
:1007E000460D360103FA06F6314300F00046B6F135
:1007F000004F02D11C4EF16101E01B4E7160F0BD53
:1008000030B500228B071C0F0F2303FA04F2164B9E
:1008100008338C1053F824309343134C08348D1054
:1008200044F8253023468C1053F824308C07240FCD
:1008300000FA04F423430C4C08348D1044F825309E
:1008400030BD0A49DC3108607047000000080140F3
:10085000000C01400010014000140140001801404C
:10086000001C014000200140000001400000204227
:10087000DF48006840F00100DD4908600846406834
:10088000DC490840DA49486008460068DA4908400F
:10089000D74908600846006820F4802008600846B0
:1008A000406820F4FE0048604FF41F0088607047E5
:1008B000CF49096821F48031CD4A11601146096899
:1008C00021F480211160B0F5803F03D0B0F5802F76
:1008D0000ED106E0C649096841F48031C44A11606E
:1008E00007E0C349096841F4A021C14A116000E052
:1008F00000BF00BF704710B5014600220023002052
:100900004A11012A02D1BA4C236806E0022A02D118
:10091000B74C236A01E0B64C636A01F01F02012460
:1009200094401C400CB1012000E0002010BD38B5FF
:10093000002000900024002500BF3120FFF7DBFFDE
:1009400005460098401C00900098B0F5A06F01D0BB
:10095000002DF2D03120FFF7CEFF08B1012400E0D6
:100960000024204638BD01460020A14A106820F02E
:10097000F80040EAC10010607047A0490860704765
:10098000024600209A4B586820F47C1042EA01038A
:100990001843974B5860704798490866704701465E
:1009A0000020934A506820F00300084350607047CD
:1009B0008F48406800F00C007047014600208C4AC8
:1009C000506820F0F0000843506070470146002056
:1009D000874A506820F4E060084350607047014641
:1009E0000020834A506820F4605040EAC100506003
:1009F000704729B17E4A527A02437D4B5A7204E015
:100A00007B4A527A82437A4B5A7270477B49D8317B
:100A10000860704701460020754A506820F4404045
:100A20000843506070470021714A20321170704AAB
:100A300082F82010012802D004280AD104E0012104
:100A40006B4A2032117005E00521694A203211708D
:100A500000E000BF00BF7047694908607047644903
:100A6000096A0143624A1162704765494439086066
:100A7000704730B500210022002400235C4D6D68D2
:100A800005F00C0121B1042905D0082923D105E086
:100A90005C4D056022E05B4D05601FE0544D6D68C4
:100AA00005F47012524D6D6805F48034022505EB93
:100AB00092421CB9544D554305600BE04C4D6D6896
:100AC00005F400351DB1504D5543056002E04D4D14
:100AD0005543056002E04B4D056000BF00BF444D2B
:100AE0006D6805F0F0010909484D6B5C0568DD4053
:100AF00045603F4D6D6805F4E061090A434D6B5C4C
:100B00004568DD4085603A4D6D6805F46051C90A5D
:100B10003E4D6B5C4568DD40C560354D6D6805F444
:100B20004041890B3A4D6B5CC568B5FBF3F5056137
:100B300030BD29B12E4A526902432D4B5A6104E05F
:100B40002B4A526982432A4B5A61704729B1284A7D
:100B500092690243264B9A6104E0254A92698243D6
:100B6000234B9A61704729B1214AD2690243204B35
:100B7000DA6104E01E4AD26982431D4BDA61704794
:100B800029B11B4AD2680243194BDA6004E0184AC3
:100B9000D2688243164BDA60704729B1144A126951
:100BA0000243134B1A6104E0114A12698243104B4D
:100BB0001A61704712494039086070470F49C8648C
:100BC00070470B49C87170470948406A40F080700F
:100BD00007494862704701460020054A92680A406A
:100BE0000AB1012000E00020704701498872704777
:100BF000001002400000FFF8FFFFF6FE0000424236
:100C00008004424200127A0000093D0014000020D6
:100C10002400002010B50446BE48844208D10121BA
:100C20008014FFF7ADFF0021A014FFF7A9FF16E025
:100C3000B948844208D101210014FFF7AEFF00211A
:100C40002014FFF7AAFF0AE0B448844207D101212B
:100C5000C013FFF7A2FF0021E013FFF79EFF10BDB6
:100C600010B50022028802F441520B884C882343BD
:100C70008C882343CC8823430C8923434C8923430A
:100C80008C892343CC8923431A430280838B4FF200
:100C9000FF74234083830B8A038210BD2DE9F04F3C
:100CA00085B005460C464FF0000902274FF00008BA
:100CB0004FF0010B0026B246A88B4FF240010840CE
:100CC000A88302202884B5F81C90A068022801D1CE
:100CD00000BF38E0A08810B94FF0010B01E04FF0E1
:100CE000020B8D48854200D100E000BF6846FFF747
:100CF000C0FEDDF800A0E088B0F5007F0AD14FEA21
:100D00001A2000EB80004000A168B0FBF1F0401D0C
:100D100086B20BE04FEA4B10BAFBF0F000EB80001C
:100D20004000A168B0FBF1F0401D86B20A20B6FB7E
:100D3000F0F606F00108A6EB0800C0F34F074FF6E7
:100D4000FF7000EA0828022F01DBFF2F02DD0227D7
:100D50004FF00008E08840EA080038432884A08863
:100D6000A1890843618808432188084340F4006052
:100D700040EA0909A5F81C9005B0BDE8F08F0021F4
:100D8000018041808180C180018141818181C18157
:100D90000721018270470021018041808180C1804C
:100DA0000221816000218181704721B1028842F0D7
:100DB0004002028004E002884FF6BF731A400280AE
:100DC000704721B1828B42F48062828304E0828B7F
:100DD0004FF6FF331A408283704730B5002400235A
:100DE0000C110125A540ABB21AB185881D43858041
:100DF00002E085889D43858030BD1AB183880B430E
:100E0000838002E083888B438380704781817047B1
:100E10000146888970474FF6FF62914204D00288EC
:100E200042F48072028004E002884FF6FF631A40A9
:100E30000280704721B1828842F00402828004E07F
:100E400082884FF6FB731A408280704702884FF207
:100E5000FF731A40028002880A43028070470188AB
:100E600041F480510180704721B1028842F4005260
:100E7000028004E002884DF6FF731A40028070473A
:100E800002460020012901D0108B00E0908A7047B3
:100E90000146088A7047B1F5804F04D1028842F4B8
:100EA0008042028004E002884BF6FF731A40028001
:100EB00070470246002013890B400BB1012000E06F
:100EC00000207047CA4302817047F0B502460020F7
:100ED00000240023002501F00F070126BE40B4B214
:100EE0000B1101269E40B3B2968806EA03051689C7
:100EF000264016B10DB1012000E00020F0BD10B574
:100F0000002201F00F040123A3409AB2D3430381CE
:100F100010BD00000030014000380040003C00409F
:100F200010B50446FB48844209D101218803FFF72C
:100F300027FE00214FF48040FFF722FE32E0F64802
:100F4000844209D101214804FFF727FE00214FF414
:100F50000030FFF722FE25E0F048844209D101214C
:100F60008804FFF71AFE00214FF48020FFF715FEDA
:100F700018E0EB48844209D10121C804FFF70DFEB7
:100F800000214FF40020FFF708FE0BE0E548844203
:100F900008D101210805FFF700FE00214FF4801061
:100FA000FFF7FBFD10BD2DE9F04786B005460E4664
:100FB0000024A24600BFA1460027B08900B100BFAF
:100FC0002F462C8A4CF6FF700440F08804432C8294
:100FD000AC894EF6F3100440B0883189084371891A
:100FE00008430443AC81AC8A4FF6FF400440B0890B
:100FF0000443AC8201A8FFF73CFDC648874202D1FA
:10100000DDF810A001E0DDF80CA0A88900F4004094
:1010100040B10AEBCA0000EB0A1031684900B0FB8E
:10102000F1F807E00AEBCA0000EB0A10316889000A
:10103000B0FBF1F86420B8FBF0F004012009642152
:1010400001FB1089A88900F4004040B1322000EB78
:10105000C900B0FBF1F000F00700044308E03220C3
:1010600000EB09106421B0FBF1F000F00F00044325
:101070002C8106B0BDE8F0874FF4165101600021C5
:101080008180C18001810C214181002181817047D3
:1010900010B502460020108A4FF2FF0318400B885B
:1010A0004C8823438C882343CC88234318431082E5
:1010B00010BD0021018041808180C180704721B135
:1010C000828942F40052828104E082894DF6FF73E6
:1010D0001A4082817047F0B503460024002600259F
:1010E000002040F66A17B94200D100BF1846C1F38C
:1010F000421401F01F06012707FA06F5012C01D161
:101100000C3004E0022C01D1103000E014301AB190
:1011100007682F43076002E00768AF430760F0BD30
:101120001AB1838A0B43838202E0838A8B438382D2
:101130007047028A4FF6F0731A400282028A0A430D
:101140000282704782894FF2FF731A40828182893E
:101150000A438281704721B1828942F00202828172
:1011600004E082894FF6FD731A4082817047028A3B
:101170004FF6DF731A400282028A0A4302827047E6
:1011800021B1028A42F48042028204E0028A4BF6D4
:10119000FF731A4002827047C1F3080282807047D1
:1011A00001468888C0F308007047818941F0010139
:1011B00081817047028BD2B20283028B42EA012204
:1011C00002837047028B02F47F420283028B0A4340
:1011D0000283704721B1828A42F02002828204E0B9
:1011E000828A4FF6DF731A408282704721B1828A69
:1011F00042F01002828204E0828A4FF6EF731A40B6
:101200008282704721B1828A42F00802828204E021
:10121000828A4FF6F7731A408282704721B1828921
:1012200042F40042828103E08289C2F30E0282818D
:10123000704721B1828A42F40062828204E0828A8D
:101240004FF2FF731A4082827047828A4FF6FB7317
:101250001A408282828A0A438282704721B1828A3E
:1012600042F00202828204E0828A4FF6FD731A4045
:101270008282704702460020B1F5007F00D100BF96
:1012800013880B400BB1012000E00020704701F4EF
:101290000072B2F5007F00D100BFCA4302807047E0
:1012A00070B50246002400230025002040F66A168F
:1012B000B14200D100BFC1F3421501F01F03012666
:1012C00006FA03F3012D02D19689334006E0022D80
:1012D00002D1168A334001E0968A33400C1201266F
:1012E00006FA04F41688344013B10CB1012000E072
:1012F000002070BD10B50022002340F66A14A14200
:1013000000D100BF0A1201249440A3B2DC43048040
:1013100010BD00000038014000440040004800407B
:10132000004C00400050004010B56FF00400FFF783
:10133000D2F82E4800682E49B0FBF1F02D49087014
:101340000846007800EB4001C1EBC0104FF6FF717A
:1013500001EAC0002849088010BD0146254A1278DC
:101360004A434FF0E0235A6100229A611A461269FB
:1013700042F001021A6100BF4FF0E022106900F054
:1013800001021AB100F48032002AF5D04FF0E022B9
:10139000126922F001024FF0E0231A6100229A61E3
:1013A00070470146144A12884A434FF0E0235A61BD
:1013B00000229A611A46126942F001021A6100BFC6
:1013C0004FF0E022106900F001021AB100F48032FF
:1013D000002AF5D04FF0E022126922F001024FF00E
:1013E000E0231A6100229A6170470000000000208B
:1013F00000127A00280000202A00002010B54FF4C7
:10140000A060FFF719F810BD014600BF704700BF8C
:101410004B4A128802F04002002AF9D0C2B2484B6F
:101420001B1D1A80704710B586B00446012144F296
:101430000400FFF78BFB4248FFF772FD4FF400708A
:10144000ADF8140003208DF8160018208DF8170051
:1014500005A93C48FFF7BEF84FF48060ADF81400D2
:1014600004208DF8170005A93648FFF7B3F82520AA
:101470008DF8000003208DF801008DF80200012096
:101480008DF803006846FEF7DCFF01940020ADF8FC
:101490000800ADF80A00ADF80C00ADF810000C2003
:1014A000ADF80E0001A92648FFF77DFD012240F2AC
:1014B00025512348FFF70FFE01212148FFF7FFFDCB
:1014C00006B010BD10B540F225511D48FFF7E8FEEB
:1014D00010B31B48FFF764FEC4B21B48008800F439
:1014E0000040C8B91848008800F4804060B10A2C58
:1014F00003D000201449088020E01348008840F4FD
:1015000000401149088019E00D2C06D10E480088D2
:1015100040F480400C49088010E00B480088C0F37C
:101520000D000A490C5408480088401C06490880F0
:1015300008460088C72801DD0020088010BD000093
:101540000038014000080140300000206C000020FD
:1015500008B50121C820FFF7F9FA0320ADF8000013
:1015600010208DF8030003208DF8020069462948F9
:10157000FFF730F802212748FFF7D9F80121254865
:10158000FFF7D5F80520ADF8000010208DF8030016
:1015900003208DF8020069461F48FFF71BF805215C
:1015A0001D48FFF7C4F82020ADF8000010208DF88A
:1015B000030003208DF8020069461748FFF70AF878
:1015C00020211548FFF7B3F84FF48070ADF8000004
:1015D00010208DF8030003208DF8020069460F48A3
:1015E000FEF7F8FF4FF480710C48FFF7A0F82020B9
:1015F000ADF8000010208DF8030003208DF80200E4
:1016000069460648FEF7E6FF20210448FFF78FF8F9
:1016100008BD0000001C014000180140000C014002
:10162000014600BFFE48008800F002000028F9D003
:10163000FB48001D018000BFF948008800F0010050
:101640000028F9D0F648001D0088C0B2704710B5D8
:1016500002460B460120F34908607E2000EA42045E
:101660002046FFF7DDFF1846FFF7DAFF0120ED49BE
:10167000091F086010BD10B5024600240120E94989
:1016800008607E2000EA420040F080031846FFF721
:10169000C7FF0020FFF7C4FF04460120E149091FEE
:1016A0000860204610BD70B505460C460026284649
:1016B000FFF7E1FF064646EA04012846FFF7C7FFA9
:1016C00070BD70B505460C4600262846FFF7D3FFCF
:1016D000064626EA04012846FFF7B9FF70BD2DE94A
:1016E000FE4F0646884691469A46DDF830B0022005
:1016F00002900020019000900C2E06D00E2E09D1F1
:10170000122001901020009005E0772001903020F9
:10171000009000E000BF00BF019840F0800102206F
:10172000FFF795FF80210420FFF7CBFF0021012068
:10173000FFF78DFF80210A20FFF7B5FF002506E0A7
:1017400018F805100920FFF782FF681C85B24D4587
:10175000F6DB31460120FFF77AFF0C2E03D1802102
:101760000D20FFF7A0FF4FF4FA6500BF0420FFF73C
:1017700082FF0446681E85B235B104F0010018B935
:10178000009820400028F1D080210D20FFF799FF1C
:10179000002D38D00620FFF76EFF00F01B0078BB4D
:1017A000002002900198204000F0010008B10120C3
:1017B00002900C2E27D10A20FFF75DFF04460C2073
:1017C000FFF759FF00F007072FB1601E07EBC000BD
:1017D0008BF8000003E0E006000E8BF8000004B96F
:1017E0000124122C00DD1224002506E00920FFF759
:1017F00042FF0AF80500681C85B2A542F6DB02E04C
:10180000FFE70220029080210C20FFF74CFF00210F
:101810000120FFF71CFF0298BDE8FE8F2DE9F04183
:1018200007468846154604210520FFF74AFF002198
:101830000120FFF70CFF80210A20FFF734FF00246E
:1018400005E0395D0920FFF702FF601CC4B2444582
:10185000F7DB03210120FFF7FAFEFF2400BF05207C
:10186000FFF709FF0646601EC4B21CB106F0040073
:101870000028F4D02220FFF7FEFE28702120FFF779
:10188000FAFE6870BDE8F081F0B587B005460E46F7
:1018900030208DF804008DF805500DF1060202216C
:1018A00001A8FFF7BBFF06A801AB042201A9009025
:1018B0000C20FFF714FF07466FB99DF81800902819
:1018C00009D1002404E001A8005D3055601CC4B2B9
:1018D000102CF8DB00E00227384607B0F0BD2DE9F8
:1018E000F04187B004460D4616461F468DF8044069
:1018F0008DF805503068CDF80600B088ADF80A00C4
:101900003868039006A801AB0C2201A900900E20B4
:10191000FFF7E5FE8046B8F1000F05D10820FFF77C
:10192000AAFE00F0080008B94FF00208404607B0D0
:10193000BDE8F08170B587B0054693208DF80400AE
:1019400070208DF8050000208DF80A0000240BE0BF
:10195000295D01AAA01C11549DF80A00295D484088
:101960008DF80A00601CC4B2042CF1DB0DF10B02EF
:10197000072101A8FFF752FF08210846FFF7A1FE43
:1019800006A801AB092201A900900C20FFF7A7FED1
:1019900006462EB99DF81800182801D1002600E04F
:1019A0000226304607B070BD2DE9FE4105460E46C1
:1019B000099C00204CE0115CCF1701EB17773F1119
:1019C0000DF810701DF81010092906DD1DF8101013
:1019D0003731C9B20DF8101005E01DF81010303184
:1019E000C9B20DF81010115CCF1701EB17773F113A
:1019F000A1EB0717FFB24FF0010C0CEB400C0DF8F8
:101A00000C70012101EB40011DF80110092911DDC5
:101A1000012101EB40011DF801103731C9B203E08B
:101A200008380040141C0140012707EB40070DF85F
:101A300007100BE0012101EB40011DF801103031CE
:101A4000C9B2012707EB40070DF80710411CC8B2C7
:101A50000428B0DB00218DF80810BDE8FE81F0B548
:101A600087B00546002708210846FFF72AFE002117
:101A70000D20FFF7ECFD80210E20FFF722FE9320C2
:101A80008DF8040020208DF8050006A801AB022285
:101A900001A900900C20FFF722FE064686B900241B
:101AA00007E001A8005D285501A8005D4740601CC3
:101AB000C4B2042CF5DB01A8005DB84200D00226B8
:101AC00080210E20FFF7EFFD304607B0F0BD70B566
:101AD00087B005460C4608210846FFF7F2FD0721AE
:101AE0000D20FFF7B4FD03211420FFF7DCFD8DF876
:101AF000045006A801AB012201A900900C20FFF7B9
:101B0000EEFD064656B99DF81800102806D19DF83E
:101B1000040020709DF80500607000E00226304649
:101B200007B070BD08B5FE495220FFF7D0FFFD4950
:101B300008700846007830B902200870FA48FFF7AC
:101B40008EFFF8490870F748007800287ED10220FF
:101B5000F44908700120F54908604FF6FF701F2313
:101B6000F14AC82100900020FFF71EFFEE480078E0
:101B7000EF490978884217D1EB484078EC49497819
:101B8000884211D1E8488078E949897888420BD1A8
:101B9000E548C078E649C978884205D10120E54981
:101BA0000870E5A000F00EFBDF480078E8490978EE
:101BB000884217D1DC484078E5494978884211D1FC
:101BC000D9488078E249897888420BD1D648C078D4
:101BD000DF49C978884205D10120DE490870DEA0BE
:101BE00000F0F0FAD0480078E1490978884217D12E
:101BF000CD484078DE494978884211D1CA4880787A
:101C0000DB49897888420BD1C748C078D849C97860
:101C1000884205D10120D7490870D7A000F0D2FA38
:101C2000C1480078DA490978884219D1BE4840781D
:101C3000D7494978884213D1BB488078D4498978FC
:101C400088420DD1B848C078D14900E03CE0C9785D
:101C5000884205D10120CF490870CFA000F0B2FA28
:101C6000B1480078D2490978884217D1AE48407807
:101C7000CF494978884211D1AB488078CC498978DE
:101C800088420BD1A848C078C949C978884205D193
:101C90000120C8490870C8A000F094FAAD48007847
:101CA000B44909780844BB4909780844C14909780E
:101CB0000844A04909780844C54908709A48FFF7C4
:101CC00039FE9849087002E000209849086095485C
:101CD000007850B9022093490870934BBD4A0921FE
:101CE0006020FFF7FCFD8F4908708E48007848B9E6
:101CF00002208C490870B849B8480078FFF7C4FD45
:101D0000884908708748007828B9022085490870FA
:101D10006420FFF746FB08BD002103E000BF00BFC1
:101D200000BF491C8142F9D3704770B505460024B5
:101D300005E0601CC4B2C82C01DD002070BD02218A
:101D4000A748FFF7B6F80028F3D02946A448FFF7C4
:101D50005DF8002405E0601CC4B2C82C01DD002041
:101D6000ECE701219E48FFF7A4F80028F3D09C4837
:101D7000FFF74EF8C0B2E1E710B504469848008876
:101D80004FF6C771084096490880084600882043EE
:101D9000088001219248FFF708F810BD00B587B010
:101DA00001218820FEF7D2FE01218803FEF7DBFE29
:101DB0000320ADF8180010208DF81B0003208DF8CB
:101DC0001A0006A98748FEF705FC02218548FEF7A0
:101DD000B0FC4FF46040ADF8180018208DF81B00DF
:101DE00003208DF81A0006A97F48FEF7F3FB4FF495
:101DF00060417D48FEF79BFC0020ADF804004FF4E5
:101E00008270ADF806000020ADF80800ADF80A00B9
:101E1000ADF80C004FF40070ADF80E003820ADF8AE
:101E200010000020ADF812000720ADF8140001A941
:101E30006B48FEF715FF01216948FEF7B6FF07B0B2
:101E400000BD10B51420FFF716FC044604F0030093
:101E500018B903211420FFF726FC10BD10B5044665
:101E6000412C26D108210846FFF72BFC3D211120EB
:101E7000FFF7EDFB86211720FFF7E9FB7F212620E6
:101E8000FFF7E5FB1E212D20FFF7E1FB00212C20B1
:101E9000FFF7DDFB8D212A20FFF7D9FB3E212B2008
:101EA000FFF7D5FB4FF47A70FFF736FFFFF7C9FF56
:101EB00001E0012010BD0020FCE700B50321142043
:101EC000FFF7FFFB00BD00B5022046491031086056
:101ED0000A20FFF721FF02204249143108600A203E
:101EE000FFF71AFF02203F49103108600A20FFF770
:101EF00013FF0F210120FFF7AAFB0F210120FFF79D
:101F0000A6FB0A20FFF708FF3D211120FFF79FFBEA
:101F10001E212D20FFF79BFB00212C2066E00000F6
:101F2000320000206800002034000020A0812142FF
:101F30003E000020380000200D0A546865205573CB
:101F400065722069733A636172645F300D0A000044
:101F500042000020390000200D0A546865205573A6
:101F600065722069733A636172645F310D0A000023
:101F7000460000203A0000200D0A54686520557381
:101F800065722069733A636172645F320D0A000002
:101F90004A0000203B0000200D0A5468652055735C
:101FA00065722069733A636172645F330D0A0000E1
:101FB0004E0000203C0000200D0A54686520557337
:101FC00065722069733A636172645F340D0A0000C0
:101FD0003D00002052000020340100206900002054
:101FE00000380040001C0140000C0140FFF72FFBAF
:101FF0008D212A20FFF72BFB3E212B20FFF727FB0B
:1020000040211520FFF723FB002000BD10B5FFF78E
:10201000C5FEFFF758FFFFF750FF0220FFF7C1F999
:10202000FFF70FFF4120FFF719FF10BD10B5FFF7B5
:102030004AFFFFF742FF0220FFF7B3F9FFF701FF66
:1020400010BDF0B587B006460F46A0208DF80400FD
:102050008DF805600DF10602022101A8FFF7DEFBF5
:1020600006A801AB042201A900900C20FFF737FB62
:1020700005464DB99DF81800042805D19DF80400C7
:1020800000F00F000A2800D0022515BB002404E050
:10209000385D01A90855601CC4B2102CF8DB05AAF4
:1020A000102101A8FFF7BAFB06A801AB122201A973
:1020B00000900C20FFF713FB05464DB99DF8180062
:1020C000042805D19DF8040000F00F000A2800D074
:1020D0000225284607B0F0BD10B587B050208DF816
:1020E000040000208DF805000DF10602022101A870
:1020F000FFF794FB06A801AB042201A900900C2075
:10210000FFF7EDFA0446002007B010BD10B50246F7
:102110000120002302E050435C1CE3B28B42FADB57
:1021200010BD2DE9F04306460F469046994602251C
:10213000052400BF43463A4631466020FFF7CFFBF7
:102140000546601EC4B20DB1002CF3DC0225052447
:1021500000BF49463046FFF797FB0546601EC4B2F4
:102160000DB1002CF5DC2846BDE8F0832DE9F043E5
:1021700006460F46904699460225052400BF434671
:102180003A4631466020FFF7AAFB0546601EC4B2FE
:102190000DB1002CF3DC0225052400BF4946304672
:1021A000FFF74FFF0546601EC4B20DB1002CF5DCF1
:1021B0002846BDE8F08330B5DDE9034530BD704702
:1021C000704700000FB4044910B503AA029800F04C
:1021D0003DF810BC5DF814FB2C0000202DE9F04107
:1021E0000E460446002020622046E168884730B34E
:1021F000252805D0D4E901219047206A401CF2E748
:10220000E168204600278847050018D0A5F1410065
:10221000192802D820354FF4006732462946204657
:102220002760FDF7BFFF40B1012804D0F61D26F05E
:1022300007060836D8E7361DD6E72846DAE7206ACB
:10224000BDE8F0817047704770477047074B70B525
:102250000D467B4400F011F80446284600F020F8B3
:1022600010B14FF0FF3070BD204670BDB9F1FFFFD7
:1022700001694A1C02610878704700B58FB0CDE94A
:1022800001310021059105497944CDE9031011463A
:102290006846FFF7A3FF0FB000BD0000E5FFFFFF9A
:1022A000007B00F080007047754600F029F8AE46CC
:1022B00005006946534620F00700854618B020B552
:1022C000FEF7A8F8BDE820404FF000064FF00007E9
:1022D0004FF000084FF0000B21F00701AC46ACE8CE
:1022E000C009ACE8C009ACE8C009ACE8C0098D463B
:1022F00070470446AFF300802046FDF762FF000000
:1023000000487047440100202823000800000020F6
:102310006C0000006C010008942300086C00002091
:102320003C0700008801000800A24A0400000000E9
:102330000000000001020304060708090000000075
:102340000102030401020304060708090204060847
:10235000000000000000000000000000000000007D
:10236000000000000000C43A68D9536A0B01D0791C
:102370001F39B0B18FA5059E0A88FFFFFFFFFFFF41
:10238000000000000000FF078029FFFFFFFFFFFFA4
:042390000008000041
:0400000508000131BD
:00000001FF
